{
  "contractName": "SmartContract",
  "abi": [
    {
      "inputs": [],
      "stateMutability": "nonpayable",
      "type": "constructor"
    },
    {
      "inputs": [],
      "name": "tips",
      "outputs": [
        {
          "internalType": "string",
          "name": "",
          "type": "string"
        }
      ],
      "stateMutability": "view",
      "type": "function",
      "constant": true
    },
    {
      "inputs": [],
      "name": "userdetails",
      "outputs": [
        {
          "internalType": "string",
          "name": "",
          "type": "string"
        }
      ],
      "stateMutability": "view",
      "type": "function",
      "constant": true
    },
    {
      "inputs": [
        {
          "internalType": "string",
          "name": "ud",
          "type": "string"
        }
      ],
      "name": "setSignup",
      "outputs": [],
      "stateMutability": "nonpayable",
      "type": "function"
    },
    {
      "inputs": [],
      "name": "getSignup",
      "outputs": [
        {
          "internalType": "string",
          "name": "",
          "type": "string"
        }
      ],
      "stateMutability": "view",
      "type": "function",
      "constant": true
    },
    {
      "inputs": [
        {
          "internalType": "string",
          "name": "t",
          "type": "string"
        }
      ],
      "name": "setTips",
      "outputs": [],
      "stateMutability": "nonpayable",
      "type": "function"
    },
    {
      "inputs": [],
      "name": "getTips",
      "outputs": [
        {
          "internalType": "string",
          "name": "",
          "type": "string"
        }
      ],
      "stateMutability": "view",
      "type": "function",
      "constant": true
    }
  ],
  "bytecode": "0x608060405234801561001057600080fd5b506040518060200160405280600081525060009080519060200190610036929190610062565b50604051806020016040528060008152506001908051906020019061005c929190610062565b50610166565b82805461006e90610134565b90600052602060002090601f01602090048101928261009057600085556100d7565b82601f106100a957805160ff19168380011785556100d7565b828001600101855582156100d7579182015b828111156100d65782518255916020019190600101906100bb565b5b5090506100e491906100e8565b5090565b5b808211156101015760008160009055506001016100e9565b5090565b7f4e487b7100000000000000000000000000000000000000000000000000000000600052602260045260246000fd5b6000600282049050600182168061014c57607f821691505b602082108114156101605761015f610105565b5b50919050565b610712806101756000396000f3fe608060405234801561001057600080fd5b50600436106100625760003560e01c80631a4e1e7814610067578063582ab4c91461008557806388e4a073146100a35780638b9a5c32146100c1578063a693c602146100df578063b97f95a1146100fb575b600080fd5b61006f610117565b60405161007c91906104c7565b60405180910390f35b61008d6101a5565b60405161009a91906104c7565b60405180910390f35b6100ab610233565b6040516100b891906104c7565b60405180910390f35b6100c96102c5565b6040516100d691906104c7565b60405180910390f35b6100f960048036038101906100f49190610632565b610357565b005b61011560048036038101906101109190610632565b610371565b005b60018054610124906106aa565b80601f0160208091040260200160405190810160405280929190818152602001828054610150906106aa565b801561019d5780601f106101725761010080835404028352916020019161019d565b820191906000526020600020905b81548152906001019060200180831161018057829003601f168201915b505050505081565b600080546101b2906106aa565b80601f01602080910402602001604051908101604052809291908181526020018280546101de906106aa565b801561022b5780601f106102005761010080835404028352916020019161022b565b820191906000526020600020905b81548152906001019060200180831161020e57829003601f168201915b505050505081565b606060018054610242906106aa565b80601f016020809104026020016040519081016040528092919081815260200182805461026e906106aa565b80156102bb5780601f10610290576101008083540402835291602001916102bb565b820191906000526020600020905b81548152906001019060200180831161029e57829003601f168201915b5050505050905090565b6060600080546102d4906106aa565b80601f0160208091040260200160405190810160405280929190818152602001828054610300906106aa565b801561034d5780601f106103225761010080835404028352916020019161034d565b820191906000526020600020905b81548152906001019060200180831161033057829003601f168201915b5050505050905090565b806001908051906020019061036d92919061038b565b5050565b806000908051906020019061038792919061038b565b5050565b828054610397906106aa565b90600052602060002090601f0160209004810192826103b95760008555610400565b82601f106103d257805160ff1916838001178555610400565b82800160010185558215610400579182015b828111156103ff5782518255916020019190600101906103e4565b5b50905061040d9190610411565b5090565b5b8082111561042a576000816000905550600101610412565b5090565b600081519050919050565b600082825260208201905092915050565b60005b8381101561046857808201518184015260208101905061044d565b83811115610477576000848401525b50505050565b6000601f19601f8301169050919050565b60006104998261042e565b6104a38185610439565b93506104b381856020860161044a565b6104bc8161047d565b840191505092915050565b600060208201905081810360008301526104e1818461048e565b905092915050565b6000604051905090565b600080fd5b600080fd5b600080fd5b600080fd5b7f4e487b7100000000000000000000000000000000000000000000000000000000600052604160045260246000fd5b61053f8261047d565b810181811067ffffffffffffffff8211171561055e5761055d610507565b5b80604052505050565b60006105716104e9565b905061057d8282610536565b919050565b600067ffffffffffffffff82111561059d5761059c610507565b5b6105a68261047d565b9050602081019050919050565b82818337600083830152505050565b60006105d56105d084610582565b610567565b9050828152602081018484840111156105f1576105f0610502565b5b6105fc8482856105b3565b509392505050565b600082601f830112610619576106186104fd565b5b81356106298482602086016105c2565b91505092915050565b600060208284031215610648576106476104f3565b5b600082013567ffffffffffffffff811115610666576106656104f8565b5b61067284828501610604565b91505092915050565b7f4e487b7100000000000000000000000000000000000000000000000000000000600052602260045260246000fd5b600060028204905060018216806106c257607f821691505b602082108114156106d6576106d561067b565b5b5091905056fea26469706673582212202866aa10ab19526d9d3324cbead4c63d7b3746a506d861edfdc5158ecf348d6764736f6c634300080b0033",
  "immutableReferences": {},
  "source": "pragma solidity >= 0.8.11 <= 0.8.11;\r\n\r\ncontract SmartContract {\r\n    string public userdetails;\r\n    string public tips;   \r\n       \r\n    //call this function to register user details data to Blockchain\r\n    function setSignup(string memory ud) public {\r\n       userdetails = ud;\t\r\n    }\r\n   //get register details\r\n    function getSignup() public view returns (string memory) {\r\n        return userdetails;\r\n    }\r\n\r\n    //call this function to save tips in Blockchain\r\n    function setTips(string memory t) public {\r\n      tips = t;\t\r\n    }\r\n   //get tip details\r\n    function getTips() public view returns (string memory) {\r\n        return tips;\r\n    }\r\n\r\n    \r\n   constructor() public {\r\n        userdetails=\"\";\r\n\ttips=\"\";\r\n    }\r\n}",
  "sourcePath": "C:\\Users\\Admin\\Desktop\\Blockchain\\hello-eth\\node_modules\\.bin\\contracts\\SmartContract.sol",
  "compiler": {
    "name": "solc",
    "version": "0.8.11+commit.d7f03943.Emscripten.clang"
  },
  "schemaVersion": "3.4.4",
  "updatedAt": "2024-01-08T09:38:03.457Z",
  "networkType": "ethereum",
  "devdoc": {
    "kind": "dev",
    "methods": {},
    "version": 1
  },
  "userdoc": {
    "kind": "user",
    "methods": {},
    "version": 1
  }
}